:020000040800F2
:1000000000410120950300086D1F0008691F0008CA
:100010006B1F0008471D0008892E00080000000023
:10002000000000000000000000000000D5020008F1
:10003000491D00080000000031030008052A0008DF
:10004000AF030008AF030008AF030008252800082D
:10005000AF030008AF0300084D1D0008AF03000800
:10006000891D0008C51D0008011E0008AF03000817
:10007000AF030008AF030008AF030008AF03000898
:10008000AF030008AF030008AF030008AF03000888
:10009000AF030008AF030008AF030008AF03000878
:1000A000AF030008AF030008AF030008AF03000868
:1000B000AF0300088D2A0008AF030008AF03000853
:1000C000AF030008AF030008AF030008AF03000848
:1000D000AF030008D12B0008392C0008C12C000800
:1000E000AF0300089D240008AF030008AF03000819
:1000F000AF030008AF030008AF030008AF03000818
:10010000AF030008AF030008AF030008AF03000807
:10011000AF030008AF030008AF030008AF030008F7
:10012000AF030008AF030008AF030008AF030008E7
:10013000AF030008AF030008AF030008AF030008D7
:10014000AF030008AF030008AF030008AF030008C7
:10015000AF030008AF030008AF030008AF030008B7
:10016000AF030008AF030008AF030008AF030008A7
:10017000AF030008AF030008AF030008AF03000897
:10018000AF030008AF03000800F002F800F092F897
:100190000AA090E8000C82448344AAF10107DA45E2
:1001A00001D100F087F8AFF2090EBAE80F0013F0A2
:1001B000010F18BFFB1A43F0010318474C7F0000E2
:1001C0006C7F0000103A24BF78C878C1FAD8520773
:1001D00024BF30C830C144BF04680C6070470000C1
:1001E0000023002400250026103A28BF78C1FBD840
:1001F000520728BF30C148BF0B6070476E2900F01E
:10020000B283702900F01D85662906F09085652966
:1002100006F08D85672906F08A856129AFF3008095
:1002200003681B0A28BF41F08001692900F04C8156
:10023000642900F04981752900F046816F2900F09A
:10024000AB84782900F0E984E92900F04584E429A9
:1002500000F04284F52900F03F84EF2900F0A884E3
:10026000F82900F0E8840368DB0928BF41F0800129
:10027000632900F0B483732900F0B983E32900F007
:10028000DF87F32900F0E487002070471FB506F0F0
:1002900049FD01F097F804000020002106F016FD4A
:1002A000401C60600020002106F026FDE0601FBDBC
:1002B00010B510BD01F061F81146FFF7E7FF04F03B
:1002C000D3FA01F03FF903B4FFF7F2FF03BC02F0E9
:1002D00091FE00002C4B19680868B0E8F04F80F3DD
:1002E0000988BFF36F8F4FF0000080F311887047CB
:1002F0000000000008480068006880F308884FF09C
:10030000000080F3148862B661B6BFF34F8FBFF36D
:100310006F8F00DF00BF00BF08ED00E0DFF80C00CA
:10032000016841F470010160704700BF88ED00E092
:10033000EFF30980BFF36F8F134B1A681EF0100F95
:1003400008BF20ED108A20E9F04F106009B44FF08B
:10035000500080F31188BFF34F8FBFF36F8F05F00C
:1003600067FD4FF0000080F3118809BC1968086828
:10037000B0E8F04F1EF0100F08BFB0EC108A80F309
:100380000988BFF36F8F704790000020EFF305805E
:10039000704700000948804709480047FEE7FEE72C
:1003A000FEE7FEE7FEE7FEE7FEE7FEE7FEE7FEE725
:1003B00004480549054A064B70470000312A0008E9
:1003C00089010008003B012000410120003D01207F
:1003D000003D0120704700000A46014900F00CBBB7
:1003E0007C0000200FB4044910B503AA029800F065
:1003F00003FB10BC5DF814FB7C0000200FB41CB59F
:10040000084B06AA7B4469460090059800F0C5FA9F
:1004100004460020694600F0D3FA20461CBC5DF873
:1004200014FB0000B905000070B50446856900683A
:10043000C10601D5302600E02026C00707D070BDD8
:10044000D4E9012130469047206A401C20626D1E8D
:10045000F6D570BD70B5044685690078C00707D130
:1004600070BDD4E9012120209047206A401C206201
:100470006D1EF6D570BD70B50C460546012A05D037
:100480002878800600D5EA69002302E0012305E010
:100490005B1C934202D2E05C0028F9D1A869E618FF
:1004A000C01AA861286A184428622846FFF7BCFFD2
:1004B00004E0D5E9012114F8010B9047B442F8D3C8
:1004C0002846FFF7C7FF70BD2DE9F041064600241E
:1004D00010687529314616A510D000F0D9F900280A
:1004E00002DA404213A507E031688A0701D512A558
:1004F00002E0490704D511A5012401E000F0D1F97B
:1005000000210A2206F1240709E0B0FBF2FCB0FB4F
:10051000F2F302FB1C00303078541846491C0028C6
:10052000F3D123462A463046BDE8F04100F0C2B977
:10053000000000002D0000002B0000002000000043
:100540002DE9F05F894604464FF0000ADFF874B1E8
:10055000FB44C0F820A02046E1688847002874D0FA
:10056000252806D0D4E901219047206A401C20624A
:10057000F1E700265F462046E168884720280546C7
:1005800007DB312D05D2781910F8200C08B106438D
:10059000F1E7B00701D526F00406C4F81CA0002737
:1005A000C4F818A02A2D09D0284602F01CFD38B343
:1005B00004EB8708303DC8F8185019E059F8041BBF
:1005C000204604EB87029161E1688847012F0546C8
:1005D00018D1E069002820DA26F020061DE0D8F8BE
:1005E000180000EB800005EB40003038C8F8180018
:1005F0002046E1688847054602F0F5FC0028EED168
:10060000012F0AD02E2D08D12046E16888477F1C93
:100610000546022F46F02006C4DBA069002803DA55
:10062000404246F00106A061F00701D026F0100616
:100630006C2D0BD0682D09D04C2D39D06A2D35D0BA
:10064000742D35D07A2D33D016E038E0E1682F468E
:1006500020468847B842054609D16C2F26D04FF472
:100660008060E168064320468847054604E06C2F19
:100670001AD04FF4807006430DB3A5F1410019283C
:1006800002D8203546F400664A46294620462660B0
:100690004E46FFF7B3FD80B101280BD0F61D26F0C2
:1006A000070000F1080956E74020E4E78020D8E77A
:1006B0000020D6E706F104094DE7284652E7206AF4
:1006C000BDE8F09FF679000070B5064600F0DCF852
:1006D0000468054630460A22002100F0BDFA2C606D
:1006E00070BD0000014A00F0EFBA000004010020D4
:1006F00030B505460B462A4613F8014B12F8010B9C
:1007000008B1A042F8D01CB1002802D06D1CF1E75E
:10071000284630BD10B5431C02E010F8011B71B132
:100720008107FAD14FF0013202C88C1A8C4314EAC7
:10073000C211F9D0C01A0A0603D0C01E10BDC01ADB
:1007400010BD0A0401D0801E10BD0902FCD0401E5D
:1007500010BD032A40F2308010F0030C00F0158029
:1007600011F8013BBCF1020F624498BF11F801CBB4
:1007700000F8013B38BF11F8013BA2F1040298BF19
:1007800000F801CB38BF00F8013B11F0030300F083
:10079000BD82083AC0F0088051F8043B083A51F88D
:1007A00004CBA0E80810F5E7121D5CBF51F8043B2C
:1007B00040F8043BAFF30080D20724BF11F8013B9F
:1007C00011F801CB48BF11F8012B24BF00F8013B01
:1007D00000F801CB48BF00F8012B704702F0FF037F
:1007E00043EA032242EA024200F002B84FF000025C
:1007F0000429C0F0128010F0030C00F01B80CCF133
:10080000040CBCF1020F18BF00F8012BA8BF20F8A0
:10081000022BA1EB0C0100F00DB85FEAC17C24BFF4
:1008200000F8012B00F8012B48BF00F8012B70479E
:100830004FF0000200B5134694469646203922BF79
:10084000A0E80C50A0E80C50B1F12001BFF4F7AFC4
:10085000090728BFA0E80C5048BF0CC05DF804EBA6
:10086000890028BF40F8042B08BF704748BF20F814
:10087000022B11F0804F18BF00F8012B7047704712
:100880007047704770470000004870479C3A01204D
:1008900009684A0501D540B27047C905FCD500B2C8
:1008A000704709684A0501D5C0B27047C905FCD533
:1008B00080B270472DE9F0470D46994692460446AE
:1008C00000F124080168880604D5E06921F01001D0
:1008D000216000E00120A84201DD471B00E0002765
:1008E000A1697A1902EB0900081AA0612078C006F4
:1008F00002D42046FFF798FD002608E0D4E9012144
:100900001AF806009047206A401C761C20624E456B
:10091000F4DB2078C0060AD52046FFF785FD06E007
:10092000D4E9012130209047206A401C2062381E03
:10093000A7F10107F4DC07E0D4E9012118F805006C
:100940009047206A401C2062281EA5F10105F3DCB7
:100950002046FFF77FFD2078000602D50220BDE883
:10096000F0870120FBE711680268006A530501D592
:1009700008700AE0D30501D5088006E0130603D508
:10098000C217C1E9000200E00860012070470000C2
:1009900001694A1C02610878704700B58FB0CDE943
:1009A00001310021059105497944CDE90310114633
:1009B0006846FFF7C5FD0FB000BD0000E5FFFFFF73
:1009C0000A6802F8010B0A60704710B5436913B159
:1009D000AFF3008001E0FFF74EFD012010BD12785B
:1009E00000F124010A7000224A700122EDE711682B
:1009F0004FF0FF32E9E70000074B70B50D467B442E
:100A0000FFF7CBFF0446284600F075FC10B14FF00D
:100A1000FF3070BD204670BD0B3700002DE9FF5F31
:100A200015468A460446DFF8AC80F8440027D8E92A
:100A300000103E46CDE9001010E03AF816106A4664
:100A400002A800F05CFC411C07D02178890603D580
:100A5000E269391891420DD80744761C2078800647
:100A600002D5E069B84205DDAE42E6DB3AF8160091
:100A70000028E2D1A069C01BA0612046FFF7D4FC8A
:100A8000D8E90010CDE90010002017E03AF818105E
:100A90006A4602A800F033FCB0F1FF3F81460BD05C
:100AA00000250DF1080B05E0D4E901211BF8050034
:100AB00090476D1C4D45F7D308F10100B0428046C8
:100AC000E4DB206A384420622046FFF7C3FCBDE81F
:100AD000FF9F00002E7500002DE9F0418046D21DD9
:100AE00022F007020025D2E90002F52915A614D04C
:100AF000011E72F1000106DA0023D0EB030063EB64
:100B0000020211A608E0D8F800108B0701D50FA645
:100B100002E0490701D50EA601251146002408F17F
:100B2000240704E000F030F930323A55641C50EAF2
:100B30000102F7D12B46324621464046BDE8F0413E
:100B4000FFF7B8BE000000002D0000002B000000E1
:100B50002000000030B4002100F1240408E002F07D
:100B60000705D208303542EA4372DB086554491C58
:100B700052EA0305F3D10468002310A2250708D523
:100B800004F020040C4304D0C46901230CA2641EA9
:100B9000C46130BCFFF78EBE10B504462146106814
:100BA000FFF77FFE02462046BDE810400023D1E754
:100BB000D21D22F00701D1E90023CBE7000000009D
:100BC00030000000F0B40D460188090502D5214C23
:100BD0007C4402E01F4C7C440E34002100F12406CA
:100BE00008E002F00F071209E75D42EA03721B09F1
:100BF0007754491C52EA0307F3D102780023120705
:100C000004D5702D06D009B1022311342246F0BC60
:100C1000FFF750BE01231034F8E770B504460D46C7
:100C200021461068FFF73DFE024629462046BDE8F2
:100C300070400023C6E7D21D22F00703D3E900234A
:100C4000C0E70368126843F0200303600823C36110
:100C50000023B7E7907300002DE9F04791460F4657
:100C600080460446002614F8015B2DB100F084F89C
:100C70000068405DC007F6D12B2D02D02D2D18D075
:100C8000641E4A463946204600F0E6FA27B1396824
:100C9000A14201D1C7F800804FF0020471050BD5C5
:100CA0004042002803DDFFF7EFFD0460A007BDE828
:100CB000F08746F48066E4E70028F8DAFFF7E4FD01
:100CC00004606FF00040F2E72DE9F04115460E4652
:100CD000040002D12C6804B90BA4204600F03FFBAD
:100CE0000444207870B127463146384600F027FB8F
:100CF0000444207810B1002004F8010B38462C6021
:100D0000BDE8F0810027F9E70000000010B5203AA7
:100D1000C0F00B80B1E81850203AA0E81850B1E8B4
:100D20001850A0E81850BFF4F5AF5FEA027C24BF6A
:100D3000B1E81850A0E8185044BF18C918C0BDE861
:100D400010405FEA827C24BF51F8043B40F8043B2A
:100D500008BF7047D20728BF31F8023B48BF11F8DF
:100D6000012B28BF20F8023B48BF00F8012B704739
:100D7000004870479C3A012010B500F023FB001D8D
:100D800010BD00BF495F000030B5B0F10A024FEA64
:100D9000900E71F100034EEA817EB0EB0E0061EB24
:100DA00091014FEA101E4EEA017E10EB0E0041EB5E
:100DB00011114FEA102E4EEA016E10EB0E0041EBBE
:100DC00011214FEA104E4EEA014E10EB0E0041EB9E
:100DD0001141401841F100014FEAD00040EA417052
:100DE0004FEAD10110EB80054FEA810444EA907488
:100DF00044EB01046D1944EB0404521BA3414FF072
:100E0000000348BF0A3200D530BD401C41F100014B
:100E100030BD70472DE9FF4F0C461E464FF0FF379F
:100E20008BB0D2E90001DDF860800A908A46C1F3F8
:100E30000A5505B93D46002108464FF00000BAF1B9
:100E4000000F00F4400005DA00EB80004FF4400191
:100E500001EA50004FEA9059B9F1010F00DDB9469F
:100E60000A9850EA4A000ED044F61050A5F2FF3519
:100E700045432F14B8F1000F1ED07542291E1EDD08
:100E8000C9F100021CE0B8F1010F4FF0000001D0E1
:100E9000302103E0F24305E02154401CB042FBDB6B
:100EA00030460022002121540B99C1F80880C1E985
:100EB00000200FB0BDE8F08FBD1B6D1CDEE74A4679
:100EC00000DA694206A800F0CFFA06AB93E8070003
:100ED00003AB83E8070050460A9900F079FB8DE8E0
:100EE0000700A0F500501F3800900398002D09DD81
:100EF00042F21F014A46084403A90390684600F0E5
:100F0000D8FD08E0A0F500504A461F3803A9039019
:100F1000684600F0E2FD8DE807000004000C03D0F5
:100F20004FF0FF30410800E01046B8F1000F03D049
:100F30000022009215461EE0751E05D4FFF724FF1F
:100F4000303262556D1EF9D5B3460122084302D0F6
:100F500000227F1C04E02078302801D100227F1E6F
:100F6000002A099786D01DE0112D07DAFFF70CFF44
:100F7000303262556D1C50EA0102F5D1084302D0AF
:100F80000098C8B10EE00021681E05E0235C625C99
:100F900063542254401E491C8142F7DBAB46A81B18
:100FA000401E0990002004F80B000B98099AC0F825
:100FB0000880C0E9002B7CE711264FF0000859E7B4
:100FC0002DE9F04F88460446D21D22F0070191B06A
:100FD000D1E90001CDE90A0101F0EDFF02460B98CD
:100FE000C00F01D02D2007E02068810701D52B20FC
:100FF00002E0202101EAC000032A099001D0072A5B
:1010000005DB03464146204600F0E0F90BE120787D
:10101000800601D5E06900E00620B8F1650F814641
:1010200006D0B8F1660F18D0B8F1670F70D131E073
:101030000020B9F1110F009001DB112301E009F14B
:1010400001030AAA01A90CA8FFF7E4FEDDE90C7070
:10105000002609F10105834647E001204B46009038
:101060004FF000470AAA01A90CA8FFF7D3FEDDE95B
:101070000DB00C995D46002610B909F101000D185C
:10108000B9EB050003D4C0F1FF3609F10105A5EB6A
:1010900009002BE0B9F1010F01DA4FF0010900203E
:1010A000B9F1110F0090484601DD112300E003461D
:1010B0000AAA01A90CA8FFF7ADFEDDE90C704D46A8
:1010C00000268346207800070AD4AB4500DA5D4647
:1010D00001A8012D04DD411911F8011C302907D0A8
:1010E0004F4502DA17F1040F04DA012082460FE0BF
:1010F0006D1EEEE7002F02DCED1B3E4403E0781C82
:10110000A84200DD7D1CB81B00F1010A4FF000472A
:101110002078000703D4AA4501DB4FF0FF3A0021F5
:10112000B7F1004F0DF143088DF8431024D0022091
:101130002B23002F01DA7F422D230A21021EA0F16A
:10114000010000DC5FB197FBF1FC97FBF1F201FBC2
:101150001C7C17460CF1300C08F801CDEEE7A8F125
:10116000010003702188090501D5452100E06521B2
:10117000A0F1010800F8011C09980FA9A1EB0807CC
:10118000FF1D00B10120411901EBEA70A16938444B
:10119000081A401EA0612078C00602D42046FFF73E
:1011A00043F9099828B1D4E901219047206A401CED
:1011B00020622078C00622D52046FFF735F91EE0D0
:1011C000002E04DBB34502DD01A8805D00E0302085
:1011D000D4E901219047206A401C2062761CAAF1C4
:1011E00001005FEA000A0AD100F0ECF8C06801686B
:1011F000405CD4E901219047206A401C2062281EEF
:10120000A5F10105DCDC07E0D4E9012118F8010BA8
:101210009047206A401C2062381EA7F10107F3DCCA
:101220002046FFF717F9032011B043E610B54369D4
:1012300013B1AFF3008001E0FFF7F0FB012010BD18
:10124000128800F1240182840022C2840122EDE789
:1012500011684FF0FF32E9E72DE9F05F824615464D
:101260008B4600270AF10104B9460078302801D0E6
:101270009DB113E014F8010B0127782803D05828FA
:1012800001D045B10AE00DB1102D07D1002714F8A7
:10129000010B102502E0082500E00A250026B046D3
:1012A0000EE005FB080005FB06F101271FFA80F898
:1012B00001EB1046B6F5803F00D3B94614F8010B98
:1012C000294600F0C3F80028EBDABBF1000F05D087
:1012D0000FB1641E00E05446CBF80040B9F1000F96
:1012E00006D0FFF7D1FA02210160C81EBDE8F09FC9
:1012F00048EA0640FAE7007B00F08000704770B5CE
:1013000016460C460546FFF737FD036893F80101C2
:10131000012806D0FF2C0FD8185D68B101202C7071
:1013200070BDD3F807013246214603F20713034488
:101330002846BDE8704018474FF0FF3070BD30B50B
:1013400003461D781DB10A4603E0AC4201D1181ACC
:1013500030BD12F8014B002CF7D15B1CF1E730B522
:1013600003461D783DB10A4612F8014B1CB1AC4250
:10137000FAD15B1CF5E7181A30BD7546FFF7F8FC8B
:10138000AE4605006946534620F00700854618B072
:1013900020B5FFF70DF8BDE820404FF000064FF0F4
:1013A00000074FF000084FF0000B21F00701AC469A
:1013B000ACE8C009ACE8C009ACE8C009ACE8C009B9
:1013C0008D46704700487047BC3A01202DE9F04136
:1013D0001F46044603260168072A01F4006004DB67
:1013E00008B116A505E016A503E008B115A500E0B3
:1013F00015A521F010002060A069C01EA0610FB1EA
:10140000401EA0612046FFF70FF84FB1D4E901213B
:1014100038469047206A401C2062C01C206206E0CB
:10142000206AFAE7D4E9012115F8010B9047761EEE
:10143000F8D22046FFF70EF8BDE8F0814E414E008D
:101440006E616E00494E4600696E66003A2800D211
:10145000303820F02002412A01D3A2F1370088421F
:1014600001D34FF0FF3070472DE9F0478146164613
:101470008AB0334878440DC88DE80D003048784470
:10148000801C03AC0DC884E80D0041F69B30084475
:10149000372190FBF1F290FBF1F5A5F1800501FBFE
:1014A00012041B3C02D56442012000E00020DFF85A
:1014B00090A080460027FA44AAF1BE0A0DE0E0079A
:1014C00009D03246684607EB47010AEB810100F07C
:1014D00004FB8DE8070064107F1C002CEFD1184F2F
:1014E0007F44AC3F18E0E80714D007EB04100DF17F
:1014F000180A90E80E008AE80E00C068F04201D198
:1015000098190890324606A903A800F0E6FA03AB42
:1015100083E807006D10641C002DE4D13246694653
:10152000B8F1000F03A802D000F0C3FA01E000F008
:10153000D4FAC9E90001C9F808200AB0BDE8F0876B
:10154000906B00000446AFF300802046FEF7BBFE20
:101550004FF0013C50F8042B51F8043B9A4221D142
:10156000A2EB0C03934313EACC1317D150F8042BCE
:1015700051F8043B9A4215D1A2EB0C03934313EAB2
:10158000CC130BD150F8042B51F8043B9A4209D1EB
:10159000A2EB0C03934313EACC13DBD04FF0000013
:1015A000704700BFD01A01BAB1FA81F101F01801F9
:1015B00022FA01F0CB40C1F12001DBB2C0B2C01A67
:1015C0002CFA01F3D11A914311EAC311E6D1704705
:1015D0005FEA400C08BF91F0000F4FEA8C234FEAFE
:1015E000C12243EA51514FEA1C5018BF00F5F040A8
:1015F0004FEA300018BF41F000415FEA6C5C00F038
:101600002980BCF1FF3F08BF40F080407047130CB9
:1016100006BF12044FF0100C4FF0000C130E04BF65
:1016200012020CF1080C130F04BF12010CF1040C90
:10163000930F04BF92000CF1020CD30F04BF5200B1
:101640000CF1010C11464FF00002A0F11F00A0EBBD
:101650000C00704711F0004F08BF704731F0004197
:101660003FF4D5AF0B0C06BF09044FF0100C4FF040
:10167000000C0B0E04BF09020CF1080C0B0F04BF89
:1016800009010CF1040C8B0F04BF89000CF1020C52
:10169000CB0F04BF49000CF1010CCCF12003A0EBEF
:1016A0000C0022FA03F302FA0CF241EA030100F102
:1016B0000100704720F07F4C80EA030023F07F4751
:1016C000ACEB070303F57C5300F0004003F1FF038C
:1016D0002DE980494FEA154B09B44FEA144325EA36
:1016E0000B4E24EA03480FF2042606EB13274908A1
:1016F0003E785FEA320203FB0667C7F5000707FB87
:1017000006F64FEA54374FEAD64606F1020607FBC3
:10171000066CCCF1005C4FEA1C472CEA074C07FB37
:1017200006F40CFB06F504EB15464FEA961634BF9B
:1017300000204FF000404FEAD13706FB07FC4FEA8C
:101740001C4C0CFB0BF7D21B03FB0CF761EB0701E6
:101750000CFB0EF7B0EB074072EB17420CFB08F7DF
:1017600034BFA2EB0742B2EB074261EB17414FEAED
:101770000C444FEA910706FB07FC4FEA1C4C0CFB9C
:101780000BF7B0EBC74072EB573203FB0CF734BFDB
:10179000A2EBC742B2EBC74261EB57310CFB0EF72D
:1017A000B0EBC70072EB57720CFB08F734BFA2EB2B
:1017B000C702B2EBC70261EB5771039F4FEA816129
:1017C00041EA921104EBCC044FEAD1374FEA82622E
:1017D00006FB07FC42EA90124FEA80604FEA1C4C7D
:1017E0000CFB0BF7D21B03FB0CF761EB07010CFBA7
:1017F0000EF7B0EB074072EB17420CFB08F734BF53
:10180000A2EB0742B2EB074261EB17414FEA8C555E
:101810004FEA910704EB9C2406FB07FC4FEA1C4CA3
:101820000CFB0BF7B0EBC74072EB573203FB0CF726
:1018300034BFA2EBC742B2EBC74261EB57310CFB9E
:101840000EF7B0EBC70072EB57720CFB08F734BF12
:10185000A2EBC702B2EBC70261EB577115EB4C2547
:101860004FEA816141EA92114FEA82624FEAD13731
:1018700042EA901206FB07FC44F100044FEA806044
:101880004FEA1C4C0CFB0BF7D21B03FB0CF761EB74
:1018900007010CFB0EF7B0EB074072EB17420CFB95
:1018A00008F734BFA2EB0742B2EB074261EB1741E6
:1018B00015EB1C154FEA813141EA92414FEA823221
:1018C00042EA90424FEA80304FEA0C7644F100043D
:1018D00048EA03434EEA0B484FF0000EB2EB080C07
:1018E00071EB030724BF624639464EEB0E0E4FF0F4
:1018F000000B0018524149414BEB0B0BB2EB080CAB
:1019000071EB03077BF1000B24BF624639464EEBB7
:101910000E0E4FF0000B0018524149414BEB0B0BE0
:10192000B2EB080C71EB03077BF1000B24BF62469E
:1019300039464EEB0E0E51EA020718BF46F001067B
:1019400016EB0E7655F1000254F1000103D5BDE807
:101950008901BDE80088BDE88901BDE80048B619E5
:10196000524141EB0101A3F10103704780807F7E6A
:101970007D7C7B7A79787776767574737271717005
:101980006F6E6E6D6C6C6B6A6A69686867666665B7
:101990006464636362616160605F5F5E5E5D5D5C45
:1019A0005C5B5B5A5A5959585857575656555555B6
:1019B0005454535352525251515050504F4F4F4E16
:1019C0004E4D4D4D4C4C4C4B4B4B4A4A4A49494964
:1019D00048484847474747464646454545444444A6
:1019E000444343434342424242414141002B26D4B7
:1019F000770021D01CB54FEA370703B44FF0100031
:101A00004FF010014FF000000FBCBDE810400BF18B
:101A1000010BBBF1010F08BF5FEA170722BF12F1EC
:101A2000010211F101014FF0004143F1000300F008
:101A3000004043EA00007047F9D35708DAE746EA66
:101A4000064613F1400F4FEA16461FDD13F1200F33
:101A5000DFBF16430A46002120335B42C8D0C3F1E2
:101A6000200746EA064602FA07F74FEA164646EA14
:101A70000706C3F1200722FA03F201FA07F721FA59
:101A800003F14FF0000342EA0702B1E746EA02061B
:101A900046EA06464FEA164646EA0106BCBF46EA53
:101AA0000646360C4FF000034FF000024FF00001E5
:101AB0009EE72DE9C048934630B491E8380007C846
:101AC00031EA400C48BF34EA430C03D5FFF7F2FD7E
:101AD000FFF78CFFF0BCBDE800882DE9C0489346B5
:101AE00030B491E8380007C810F0804F08BF13F0F9
:101AF000804F03D100F005F8FFF778FFF0BCBDE898
:101B0000008820F07F4780EA030023F07F4C07EB3A
:101B10000C03A3F57C5300F00040A3F1FE0392F008
:101B2000000F00F0B38095F0000F00F077802DE9F2
:101B300001494FEA11404FEA144621EA004800FBF0
:101B400006FC24EA064708FB06F607FB08F800FB3C
:101B500007F718EB06484CEB164C4FEA124B18EB04
:101B600007484FEA15464CEB174022EA0B4E0BFB99
:101B700006FC25EA06470EFB06F607FB0EFE0BFBEE
:101B800007F71EEB064E4CEB164C4FF000061EEB13
:101B9000074E4CEB174B18EB0B0840F1000018EB0D
:101BA0000E0B58EB000840F100008F1A4FF00001B7
:101BB0003CBFC943661B14BFB5EB040C00213CBFFE
:101BC000C943F61B4FEA17444EEA8E0E27EA044536
:101BD0004FEA1C4704FB07622CEA074C05FB07F79A
:101BE0000CFB05F604FB0CFC16EB074642EB174218
:101BF00016EB0C4642EB1C421BEB060658EB0202AE
:101C0000414146EA9E0601D5BDE80189B619524117
:101C100041EB0101A3F10103BDE801894FEA14453D
:101C20004FEA114724EA054621EA074C05FB07F471
:101C300006FB07F70CFB06F105FB0CFC11EB07415B
:101C400044EB17444FEA124711EB0C4144EB1C44A0
:101C500022EA074C05FB07F206FB07F70CFB06F62A
:101C600005FB0CFC16EB074642EB174216EB0C4645
:101C700042EB1C456A1854F1000148BF7047B61981
:101C8000524141EB0101A3F10103704795F0000FB0
:101C900037D04FEA11424FEA144721EA024624EABC
:101CA000074C02FB07F106FB07F70CFB06F402FBEF
:101CB0000CFC14EB074441EB17414FEA154714EBBA
:101CC0000C4441EB1C4125EA074C02FB07F506FBDF
:101CD00007F70CFB06F602FB0CFC16EB074645EB80
:101CE000174516EB0C4645EB1C42121951F1000149
:101CF00048BF7047B619524141EB0101A3F10103FE
:101D000070474FEA14454FEA114724EA054621EA95
:101D1000074C05FB07F106FB07F70CFB06F24FF03B
:101D2000000605FB0CFC12EB074241EB174112EBDE
:101D30000C4251EB1C4148BF7047921841EB010126
:101D4000A3F101037047FEE77047000010B5502073
:101D5000EFF3118480F31188BFF34F8FBFF36F8FC0
:101D6000012000F071F8012808D106480022012165
:101D7000006804F0F5F8012000F060F884F31188A1
:101D800010BD00003000002010B55020EFF311848A
:101D900080F31188BFF34F8FBFF36F8F042000F0E3
:101DA00053F8012808D1064800220221006804F0F7
:101DB000D7F8042000F042F884F3118810BD000029
:101DC0003000002010B55020EFF3118480F311880B
:101DD000BFF34F8FBFF36F8F082000F035F8012855
:101DE00008D1064800220421006804F0B9F8082050
:101DF00000F024F884F3118810BD000030000020AA
:101E000010B55020EFF3118480F31188BFF34F8F8A
:101E1000BFF36F8F102000F017F8012808D1064893
:101E200000220821006804F09BF8102000F006F85A
:101E300084F3118810BD00003000002001490860C3
:101E400070470000143C0140034A0146002012681C
:101E50000A4200D001207047143C014030B51A4AB4
:101E60008379016853B313688B431360111D0B68AA
:101E70000468A3430B60017911440B680468234391
:101E80000B60114B083319680468A14319601C1DCD
:101E900021680568A94321604179102905D01144C2
:101EA0000A68006802430A6030BD1968026811437D
:101EB0001960216800680143216030BD0079104439
:101EC00002688A43026030BD003C0140F0B5002248
:101ED00001274FF0030C0B6807FA02F52B40AB42C9
:101EE0002CD1066853000CFA03F4A64306600E7961
:101EF000D0F800E09E4046EA0E0606600E79012EFC
:101F000001D0022E12D18668A64386604E79D0F8A1
:101F100008E09E4046EA0E0686604668AE4346608C
:101F200045688E799640B6B235434560C568A5438D
:101F3000C560CC799C40C3681C43C460521C102A05
:101F4000C9D3F0BD4B07DB0E9A40C90810B500EBB2
:101F50008100016A0F249C40A1430162016A114380
:101F6000016210BD01837047FEE7FEE7704700F095
:101F70001F02012191404009800000F1E020C0F8DB
:101F80008011704700F01F0201219140400980003C
:101F900000F1E020C0F800117047000030B50F23B9
:101FA000C27801780125FAB1144A126801F1E021E2
:101FB00002F4E062C2F5E062C2F30722C2F1040457
:101FC000D3404278A24084781C401443220181F817
:101FD0000024007800F01F018D404009800000F1CE
:101FE000E020C0F8005130BD01F01F0085404809D5
:101FF000800000F1E020C0F8805130BD0CED00E021
:102000000249084302490860704700000000FA05D1
:102010000CED00E070B50E4D0024002104F1B0007D
:1020200000F085F90021084600F081F90021102018
:1020300000F07DF98021002000F0A6FF05EBC41020
:102040008021FEF7D3FB641CE4B2082CE5D370BDFD
:10205000300100202DE9F05F994692460C468046FB
:102060000025DDF828B017E02146404600F0B4F81E
:10207000AAEB08060BEB05073146384600F06CFF6B
:102080000748324600EBC413394603EB0800FEF75D
:1020900060FB641C3544E4B24C45E5D3BDE8F09FD9
:1020A000300100207CB501210A2000F04DF9012407
:1020B0008DF804404FF400408DF806400326009050
:1020C0008DF8056000258DF8075069464048FFF7F8
:1020D000FDFE8DF80440A0028DF8064000908DF8BA
:1020E00005608DF8075069463A48FFF7EFFEC820B3
:1020F00001F0FEFE0021AE2000F019F90021084693
:1021000000F015F90021102000F011F90021402005
:1021100000F00DF90021B02000F009F90021812024
:1021200000F005F90021FF2000F001F90021A620B0
:1021300000F0FDF80021A82000F0F9F800213F2070
:1021400000F0F5F80021C82000F0F1F80021A120EE
:1021500000F0EDF80021D32000F0E9F80021084656
:1021600000F0E5F80021D52000F0E1F80021802002
:1021700000F0DDF80021D82000F0D9F8002105207A
:1021800000F0D5F80021D92000F0D1F80021F1208D
:1021900000F0CDF80021DA2000F0C9F8002112206B
:1021A00000F0C5F80021DB2000F0C1F8002130204C
:1021B00000F0BDF800218D2000F0B9F800211420B6
:1021C00000F0B5F80021AF2000F0B1F87CBD0000B0
:1021D00000040240000C024010B50A4604460021EB
:1021E00002F1B00000F0A3F8102040EA1410002122
:1021F00000F09DF804F00F00BDE81040002100F051
:1022000096B800002DE9F04114460E460746FFF748
:10221000E3FF1148102100EB8410044600F09CFEFF
:102220000E48214600EBC610C51910222846FEF7BD
:1022300090FA761CF1B23846FFF7CEFF04F1200089
:102240000446102100F088FE214605F18000BDE81B
:10225000F0411022FEF77DBA4A75000830010020D7
:102260002DE9F041203A0C460546D6B27F2802D926
:1022700000258C1CE4B21E4FDFF87880102B21461D
:10228000284614D0FFF7A8FF06EB4601A7F50A7011
:1022900000EB4100062100F05FFE08EBC410B91905
:1022A00028440A68026089888180BDE8F081FFF7D0
:1022B00093FF07EB06160821304600F04DFE08EBB1
:1022C000C41047193068386070687860641CE1B2E7
:1022D0002846FFF781FF06F10800082100F03CFEC8
:1022E000B068C7F88000F068C7F88400DDE7000038
:1022F0005A6F0008300100202DE9F041984617463A
:102300000E46044600250DE0434631462046FFF7C1
:10231000A7FF0834E4B2782C02D90024B61CF6B228
:102320006D1CEDB27A5D002AEED1BDE8F081C0B23D
:1023300009B100F0FABD00F0E1BD000001490862FA
:102340007047000000000E42044A0029116801D0C5
:10235000014300E0814311607047000030380240C3
:10236000044A0029116801D0014300E08143116053
:102370007047000040380240044A0029116801D02B
:10238000014300E08143116070470000443802407F
:1023900070B5204B1968204C11F00C0104D0661068
:1023A000042903D0082903D004601BE0066019E06B
:1023B000184A121F1168C1F38055116801F03F01DE
:1023C00015B1B6FBF1F101E0B4FBF1F1146812684C
:1023D000C4F388146143C2F30142521C5200B1FBA2
:1023E000F2F1016019680F2202EA11110B4A545CE4
:1023F0000168E14041601C68072505EA9424145DEA
:1024000021FA04F484601B6805EA5333D25CD1409E
:10241000C16070BD083802400024F4008000002034
:1024200002460020510901290BD002290CD008498D
:10243000096802F01F02012393400B4200D00120E3
:10244000704703497439F3E70149091FF0E70000B9
:10245000743802400149086070470000800E47420E
:1024600001490860704700003C0E4742C0F301215B
:10247000032907D1074B1968074A21F4F8110240D4
:102480000A431A60034968310A68C0F30B0002432B
:102490000A60704708380240FFFCFF0F10B54FF488
:1024A0008054204600F088F8012807D1204600F02B
:1024B00029F86001BDE81040FFF7C0BC10BD01095C
:1024C00001EB810100F00F0000EB4100C0B270474A
:1024D000002103E0491C0A38C9B2C0B20A28F9D267
:1024E000090740EA1160704780B240F08000C143A4
:1024F0000348026802F08002114301607047000047
:102500000C280040C0F30F1040F08000C143034886
:10251000026802F080021143016070470C280040FD
:1025200008B50D49002000900868400612D44FF00D
:10253000FF3008608B130868009A00F04000521CBE
:1025400000929A4201D00028F5D00868400601D4D4
:10255000002008BD012008BD0C2800400248016889
:1025600021F08001016070470C280040020010B586
:102570000F480C4601680F4801EA00014FEA11407C
:10258000E070C1F30423637001F03F03A370C1F353
:10259000423121700AD1FFF792FFE0706078FFF7B7
:1025A0008EFF6070A078FFF78AFFA07010BD00005A
:1025B000042800403FFFFF000B4A0021126802F090
:1025C0000403094A383A126803EAD03302401A4336
:1025D000064B1B6803EA101003D00004000C00D067
:1025E0000121084670470000402800400C280040A8
:1025F000020010B510480C460168104801EA0001BD
:10260000C1F305402070C1F30623637001F07F031E
:10261000A3704FF0400303EA1141E1700AD1FFF7C4
:102620004EFF20706078FFF74AFF6070A078FFF7D8
:1026300046FFA07010BD0000002800407F7F7F0093
:1026400030B50E4DCA222A6053222A600B4C0B4B28
:102650001C3C1C33002920F00402216800F0040017
:1026600004D0114321601968014303E091432160C4
:10267000196881431960FF20286030BD242800407C
:1026800070B5124D04460026CA20286053202860E9
:10269000FFF746FFA8B10D481C38016821F0400142
:1026A000016001682268114301600848A16814387C
:1026B00001600168A28841EA02410160FFF74EFF14
:1026C0000126FF202860304670BD0000242800400D
:1026D00070B50C460026010060780FD0FFF7EFFEC2
:1026E000A078FFF7ECFEA078E17840EA0145607839
:1026F0002178000240EA4130054315E0C10603D5C8
:1027000020F010000A306070E078FFF7E1FE050469
:102710006078FFF7DDFE45EA0025A078FFF7D8FED8
:102720000543207845EA40350D4CCA2020605320EF
:102730002060FFF7F5FE78B10A48054008482038C8
:102740000560FFF70BFF06481C380068800602D4BE
:1027500000F080F800B10126FF202060304670BDF7
:10276000242800403FFFFF002DE9F0410C460026E1
:10277000234F01002078396832464FEA416104D086
:10278000002930DAFFF79BFE2EE0002900DBE27023
:10279000FFF79EFE05046078FFF79AFE45EA0025E4
:1027A000A078FFF795FE0543E07845EA0045144C14
:1027B000CA201C34206053202060FFF7B1FE68B1AE
:1027C000104805400E4808380560FFF7C7FE386816
:1027D000800602D400F03EF800B10126FF20206000
:1027E0003046BDE8F081E270A078217840EA0145EA
:1027F0006078E178000240EA01400543D7E7000035
:10280000082800407F7F7F000549CA220A605322C2
:102810000A60034A103A1060FF2008607047000009
:102820002428004010B54FF480442046FFF7C4FE32
:1028300001280CD106480021006803F027FE20463D
:10284000FFF760FE2002BDE81040FFF7F7BA10BDA9
:102850002C00002018B50020104B0090CA201860F2
:10286000532018600D491839086820F0A00008604E
:102870004FF400340868009A00F02000521C0092C7
:10288000A24201D00028F5D00868800601D50120B9
:1028900000E00020FF21196018BD0000242800403E
:1028A000084ACA2111605321116006491C390B687E
:1028B00023F007030B600B6803430B60FF201060DD
:1028C000704700002428004018B50021134B0091E8
:1028D000CA2119605321196010491C390028086861
:1028E00003D040F48060086014E020F48060086049
:1028F0000A4918398C130868009A00F00400521C29
:102900000092A24201D00028F5D00868400701D407
:10291000002000E00120FF21196018BD242800409C
:1029200010B58A0721F003040849120F21440F2330
:10293000D1F8084893409C43C1F80848D1F80838BA
:1029400090400343C1F8083810BD0000003001403A
:102950000CB50022274900920192086840F48030AB
:1029600008604FF4A043086800F40030019000981C
:10297000401C0090019810B900989842F3D1086863
:10298000800334D5012001901A484030026842F09B
:10299000805202601848026842F4404202601548C2
:1029A000083002680260026842F400420260026875
:1029B00042F4A0520260031F104A1A600A6842F0F3
:1029C00080720A600A689201FCD50D4940F20572D6
:1029D0000A60016821F003010160016841F0020111
:1029E00001600168C1F381010229FAD10CBD019295
:1029F0000CBD000000380240007000400854400741
:102A0000003C024010B5502080F31188BFF34F8F77
:102A1000BFF36F8F03F05AFF18B104494FF0805095
:102A20000860002080F3118810BD000004ED00E074
:102A3000124810B5016841F4700101601048016846
:102A400041F0010101600E4A002108321160026864
:102A50000C4B1A400260031D0B4A1A60026822F4F4
:102A60008022026006480C300160FFF771FF0349C5
:102A70004FF000608039086010BD000088ED00E074
:102A800000380240FFFFF6FE10300024F8B5502059
:102A9000EFF3118480F31188BFF34F8FBFF36F8F73
:102AA000154E0121304600F03EF8012817D1134D94
:102AB000286860B1134801236A461149006803F091
:102AC00087FCB1150E48FDF791FE0020286000211B
:102AD000304600F01EF80121304600F017F800984B
:102AE00038B109494FF080500860BFF34F8FBFF3F2
:102AF0006F8F84F31188F8BD000400406C00002043
:102B0000500A00203800002004ED00E0C943018293
:102B100070470029018802D041F0010101E021F055
:102B200001010180704702460020138A92890B42FE
:102B300002EA010202D0002A00D001207047002AD8
:102B4000828901D00A4300E08A4382817047416252
:102B50007047000030B50288164C174DA0420DD0CA
:102B6000A8420BD0B0F1804F08D0144B984205D04A
:102B7000134B984202D0134B984203D122F07003BA
:102B80004A881A43104B984206D0104B984203D003
:102B900022F440730A891A4302804A68C2620A8892
:102BA0000285A04201D0A84201D1897A0186012183
:102BB000818230BD0000014000040140000400405B
:102BC00000080040000C00400010004000140040CD
:102BD00070B5154D40F225563146284600F0BEF836
:102BE000002820D0284600F047F9114CC2B20F4906
:102BF00060680A54401C6060232A01D020280CD34E
:102C00000C4800231A460949006803F0E1FB002044
:102C1000606020210548FDF7E9FD31462846BDE802
:102C2000704000F084B870BD00100140300A0020F0
:102C30006C0000203C0000202DE9F0415020EFF313
:102C4000118480F31188BFF34F8FBFF36F8F184D3E
:102C500040F225563146284600F080F8012822D15E
:102C6000284600F009F91349C0B20A68FF2A05D8BE
:102C70000A68114B1344521C0A6018700F4F01214F
:102C80003846FFF743FF00213846FFF742FF002197
:102C90003846FFF75CFF01213846FFF73AFF31461F
:102CA000284600F044F884F31188BDE8F081000064
:102CB000004400406C000020500A00200004004046
:102CC00070B5154D40F225563146284600F046F8BD
:102CD000002820D0284600F0CFF8114CC2B20F498E
:102CE000A0680A54401CA060232A01D020280CD3DD
:102CF0000C4800231A460949006803F069FB0020CC
:102D0000A06020210548FDF771FD31462846BDE849
:102D1000704000F00CB870BD00480040300A002040
:102D20006C0000203C000020C943018070470A0A63
:102D300001219140C943018070470029818902D057
:102D400041F4005101E021F40051818170470246B5
:102D5000002012880A4200D00120704770B501F0AF
:102D60001F0501260024C1F3421306FA05F2012BC8
:102D70000FD0022B0FD0838A4FEA11210088134213
:102D800006FA01F600EA060001D000B1012420464F
:102D900070BD8389F0E7038AEEE710B5C1F34213F3
:102DA00001F01F040121A140012B07D0022B07D005
:102DB0001430002A026805D00A4304E00C30F8E71A
:102DC0001030F6E78A43026010BD00007FB504466C
:102DD000008A0D46C98820F4405001432182A08911
:102DE00041F20C618843A9882A8911436A89024308
:102DF0001143A181A08A20F44071A8890843A082D0
:102E00006846FFF7C5FA1A48844202D0194884423E
:102E100001D1039800E00298A189090400EBC001E8
:102E200001EB0010296801D5490000E08900B0FBE2
:102E3000F1F06422B0FBF2F109010B096FF0180503
:102E40006B4300EB8300A3891D044FF0320306D5CA
:102E500003EBC000B0FBF2F000F0070005E003EB6D
:102E60000010B0FBF2F000F00F00084320817FBD9E
:102E700000100140001401408088C0F30800704732
:102E8000C1F3080181807047FEE700002DE9F0479B
:102E900081460024012001F0EBFB164D0026C5F809
:102EA000BC62154FC7F8A862012001F023F84FF06B
:102EB000010AA846C4F107010AFA01F0554610EAD2
:102EC000090F02D0C7F8A85201E0C7F8A862012094
:102ED00001F010F8C8F8BC52012001F00BF8C8F856
:102EE000BC62012001F006F8641C082CE2D3BDE8A6
:102EF000F0870000008040420080414210B5044647
:102F000001F0C8FB7820FFF7C1FF01F005FC0020AD
:102F1000FFF7BCFF01F000FC2046FFF7B7FF01F010
:102F2000FBFBBDE8104001F0D5BB10B5044601F035
:102F3000B1FB7820FFF7AAFF01F0EEFB4020FFF77E
:102F4000A5FF01F0E9FB2046FFF7A0FF01F0E4FB3D
:102F5000BDE8104001F0BEBB70B50D46044601F05F
:102F600099FB7820FFF792FF01F0D6FB402001E0AB
:102F700014F8010BFFF78AFF01F0CEFB6D1EF7D2AC
:102F8000BDE8704001F0A6BB70B50C46054601F0E7
:102F900081FB7820FFF77AFF01F0BEFB402000E0C4
:102FA0002846FFF773FF01F0B7FB641EF8D2BDE8B7
:102FB000704001F08FBB03B401984100009850EAC3
:102FC000C12018BF04204A0D18BF40F0010040F294
:102FD000FF72B2EB515F08BF40F00200012808BF4A
:102FE000052002B0704730380A2801D2012070470E
:102FF000002070477047000092B0402101A8FDF703
:1030000017FC59A000F09EFF4FF47A744FF4E1359D
:1030100005E0204600F06CFF59A000F093FF284621
:1030200001F046F90028F4D15CA000F08BFF624D5E
:103030004FF0FF374FF4FA76009700230122F0217A
:10304000286B02F095FF0446C00616D55BA000F081
:1030500079FF664800F076FF0021084601F00CFA7F
:10306000002838D062A000F06DFF304600F040FF2D
:1030700001F09EF9304600F03BFFA0061ED54FA0A0
:1030800000F060FF624800F05DFF402101A8FDF7FD
:10309000CFFB01A801F01CF9002827D05DA000F0AB
:1030A00051FF4FF40071286B02F013FF304600F01F
:1030B0001FFF01F07DF9304600F01AFF600634D59D
:1030C0003EA000F03FFF01F08DF801001BD559A094
:1030D00000F038FF21E062A000F034FF00F000FFB4
:1030E000642000F005FF00F0F3FEBEE764A000F0EE
:1030F00029FF00F0F5FE642000F0FAFE00F0E8FE83
:103100004FF48071CFE766A000F01CFF00F0E8FEEE
:10311000642000F0EDFE00F0DBFE304600F0E8FE3B
:1031200001F046F9304600F0E3FE200684D523A0E6
:1031300000F008FF00F0F6FF58B164A000F002FFB5
:10314000304600F0D5FE01F033F9304600F0D0FEF5
:1031500072E767A000F0F6FE00F0C2FE642000F007
:10316000C7FE00F0B5FEEBE73344C8CBC1B3CAB627
:10317000B1F0D6C7C4DCC3C5CBF80D0A000000000F
:103180005BC8CBC1B3CAB6B1F0C4A3BFE95D20C16F
:10319000ACBDD3D6D0202E2E2E0D0A005BC8CBC1DD
:1031A000B3CAB6B1F0C4A3BFE95D20D2D1C1ACBDF2
:1031B000D3C9CF0D0A000000000000200D0A0D0A3F
:1031C0003D3D3D3D3D3D3D3D3D3D3D3D3D3D3D3D2F
:1031D0003D3D3D3D3D3D3D3D3D3D3D3D3D3D3D3D1F
:1031E0003D3D3D3D3D0D0A0D0A00000020800008D8
:1031F0005BC8CBC1B3CAB6B1F0C4A3BFE95D20D7E9
:10320000A2B2E1D3C3BBA7CAA7B0DC210D0A00005C
:10321000688000085BC8CBC1B3CAB6B1F0C4A3BF15
:10322000E95D20C8CBC1B3C6A5C5E4CAA7B0DC21FF
:103230000D0A00005BC8CBC1B3CAB6B1F0C4A3BFCE
:10324000E95D20BBF1C8A1D2D1D7A2B2E1B5C4D308
:10325000C3BBA7D7DCCAFDCAA7B0DC210D0A00009A
:103260005BC8CBC1B3CAB6B1F0C4A3BFE95D20D778
:10327000A2B2E1D3C3BBA7B3C9B9A6210D0A00000E
:103280005BC8CBC1B3CAB6B1F0C4A3BFE95D20C867
:10329000CBC1B3C6A5C5E4B3C9B9A6210D0A0000C8
:1032A0005BC8CBC1B3CAB6B1F0C4A3BFE95D20BB54
:1032B000F1C8A1D2D1D7A2B2E1B5C4D3C3BBA7D7BD
:1032C000DCCAFD3A25640D0A000000005BC8CBC1D2
:1032D000B3CAB6B1F0C4A3BFE95D20C9BEB3FDCB8C
:1032E000F9D3D0D3C3BBA7CAA7B0DC210D0A000015
:1032F0005BC8CBC1B3CAB6B1F0C4A3BFE95D20C9F6
:10330000BEB3FDCBF9D3D0D3C3BBA7B3C9B9A621F4
:103310000D0A00007CB54FF4165000F08FFD00F050
:10332000B9FD00F027FE01F0EDFF01F013FA01F006
:103330007BFAFEF7B7FEFEF76DFE002203210220A6
:10334000FEF760FF012203211420FEF75BFF02223B
:1033500003212620FEF756FF032211463820FEF7F0
:1033600051FF042203214A20FEF74CFF05220321CE
:103370005C20FEF747FF062203216E20FEF742FF86
:1033800002F068F801F04CFB012002F0EFFE374C30
:103390006062012002F0EAFEA06203220021012007
:1033A00002F0F6FEE06202F087FD206302F084FD89
:1033B000606300224FF48071102002F0E9FEA063E8
:1033C00000222021052002F0E3FEE06302F010FA63
:1033D00004F140014FF400750868002340F03F00FD
:1033E00008603C390520CDE900012A4620A1244887
:1033F00003F02CFA04F108010620CDE900010023B6
:103400002A4620A1234803F021FA04F10C000724E6
:10341000CDE9004000236A001FA1234803F016FAFB
:10342000124800231030CDE900402A461FA123484E
:1034300003F00CFA0D4800231430CDE900402A4671
:103440001FA1234803F002FA084800231830CDE9F1
:1034500000402A461FA1234803F0F8F902F0E8F9DA
:10346000BDE87C40002002F0BBBA00000000002054
:103470006170705F7461736B5F7274630000000051
:10348000D93800086170705F7461736B5F6B657928
:1034900000000000E93400086170705F7461736BB4
:1034A0005F66726D00000000F92F00086170705FA8
:1034B0007461736B5F737230340000008D390008E3
:1034C0006170705F7461736B5F6D6F746F72000019
:1034D000213600086170705F7461736B5F75736192
:1034E000727400003D3C000808B501F033F93D4E10
:1034F0003D4F3E4D4FF0FF38CDF8008000230122B4
:103500000F21286B02F034FD0446322002F042FA0B
:10351000E00717D00620FEF72AFDD6F8000270B9A2
:1035200033A000F00FFD02E0142002F033FAD6F8C9
:1035300000020028F8D01021286B02F0CAFC0620F7
:10354000FEF720FDA00717D50820FEF710FDD7F8DD
:10355000080270B929A000F0F5FC02E0142002F086
:1035600019FAD7F808020028F8D02021286B02F0B9
:10357000B0FC0820FEF706FD600717D50920FEF70E
:10358000F6FCD7F80C0270B91FA000F0DBFC02E0DB
:10359000142002F0FFF9D7F80C020028F8D04021DF
:1035A000286B02F096FC0920FEF7ECFC2007A3D55F
:1035B0000A20FEF7DCFCD7F8100270B915A000F065
:1035C000C1FC02E0142002F0E5F9D7F8100200284F
:1035D000F8D08021286B02F07CFC0A20FEF7D2FC98
:1035E0008AE7000000004042000042420000002044
:1035F00053312050726573730D0A0000533220500E
:10360000726573730D0A0000533320507265737333
:103610000D0A000053342050726573730D0A0000C8
:103620009E4C08B500264FF4A06A4FF4FA6841F2A8
:10363000883B771E04F14009009700230122514680
:10364000206B02F095FC0546C0056ED53946A06A90
:1036500003F006F8FEF7DEFC9148009004235022A8
:1036600000213020FEF7F6FC0D2206210A20FEF78D
:10367000C9FD0E2206211C20FEF7C4FD0F220621E3
:103680002E20FEF7BFFD102206214020FEF7BAFDD6
:10369000112206215220FEF7B5FD122206216420D8
:1036A000FEF7B0FD00231A461946A06A02F0DEFDBF
:1036B0007CA000F047FC01F065F9404600F018FCE2
:1036C0003946A06A02F0CCFFFEF7A4FC15220321C4
:1036D0001220FEF797FD162203212420FEF792FD0B
:1036E000172203213620FEF78DFD182203214820E2
:1036F000FEF788FD192203215A20FEF783FD0023DF
:103700001A461946A06A02F0B1FD584600F0F0FBD7
:103710006AA000F017FC01F0E7F8404600F0E8FB73
:103720004FF40061206B02F0D4FB680584D5002EB5
:103730007AD1D9F80010012321F00101C9F8001055
:1037400000971A461946606B02F012FCC0076AD057
:103750003946A06A02F084FFFEF75CFC5D480090E9
:103760000423502200213020FEF774FC1E22062183
:103770000A20FEF747FD1F2206211C20FEF742FD0E
:10378000202206212E20FEF73DFD21220621402089
:10379000FEF738FD112206215220FEF733FD1222DA
:1037A00006216420FEF72EFD00231A461946A06A62
:1037B00002F05CFD3BA000F0C5FB01F0E3F84546DC
:1037C000404600F095FB3946A06A02F049FFFEF73B
:1037D00021FC152203211220FEF714FD16220321DD
:1037E0002420FEF70FFD172203213620FEF70AFDE5
:1037F000182203214820FEF705FD192203215A2033
:10380000FEF700FD00231A461946A06A02F02EFDBD
:10381000584600F06DFB29A000F094FB01F064F81D
:10382000284600F065FB0126D9F8001041F001019F
:10383000C9F800103946A06A02F012FFFEF7EAFB51
:10384000002203210220FEF7DDFC012203211420C7
:10385000FEF7D8FC022203212620FEF7D3FC032228
:1038600011463820FEF7CEFC042203214A20FEF741
:10387000C9FC052203215C20FEF7C4FC06220321BB
:103880006E20FEF7BFFC00231A461946A06A02F01C
:10389000EDFC606802F0F0F9CEE6000000000020C8
:1038A0004A7E00085BB2BDBDF8B5E7BBFAC4A3BF52
:1038B000E95D20BFAAC3C5210D0A00005BB2BDBDF2
:1038C000F8B5E7BBFAC4A3BFE95D20B9D8C3C521E9
:1038D0000D0A0000CA7E000886B00027DFF87C8051
:1038E0000197A8F14004029703977D1E04F11C067E
:1038F000049798F80000C00706D10121606B02F020
:10390000E8FA002002F02EFA2946E06A02F0A8FE4A
:10391000124900202439FEF76BFE019702970397A6
:103920000497B0780090737832780DA101A8FCF765
:1039300065FD01A90EA000F005FB2946A06A02F072
:103940008FFE0021102301AA0846FEF7D5FC0023B4
:103950001A461946A06A02F089FCCAE74000002016
:10396000253032643A253032643A25303264000022
:103970005B6170705F7461736B5F7274635D5B69D0
:103980006E666F5D3A2025730D0A0000DFF84CA2C9
:1039900008B500254FF4F0784FF4FA7B6F1EAAF1BA
:1039A000400601F021FD0446143840457ED8002D24
:1039B0007CD1DAF80010012321F00101CAF80010CF
:1039C00000971A461946706B02F0D2FAC0076ED003
:1039D000834800F0B7FA3946B06A02F041FEFEF7BC
:1039E00019FB804800900523502201213020FEF76A
:1039F00031FB072206210A20FEF704FC08220621DB
:103A00001C20FEF7FFFB092206212E20FEF7FAFB01
:103A10000A2206214020FEF7F5FB0B220621522048
:103A2000FEF7F0FB0C2206216420FEF7EBFB0023DF
:103A30001A461946B06A02F019FC2021306B02F0D8
:103A400048FAD946584600F053FA0097002301225D
:103A50004FF42061306B02F08BFA0546000515D556
:103A6000CB464FF4C87901F0BFFC0446584600F03D
:103A70003FFAA4F11400404502D85BA000F062FABE
:103A80004C45F0DD4FF47A7000F032FAA8055FD5AE
:103A90003946B06A02F0E4FDFEF7BCFA0D220321BC
:103AA0000A20FEF7AFFB0E22032101E051E04FE0B8
:103AB0001C20FEF7A7FB0F2203212E20FEF7A2FBFE
:103AC000102203214020FEF79DFB132203215220E8
:103AD000FEF798FB142203216420FEF793FB0023DA
:103AE0001A461946B06A02F0C1FB4FF47A752846AF
:103AF00000F0FEF93946B06A02F0B2FDFEF78AFA2C
:103B0000182203211220FEF77DFB1A220321242014
:103B1000FEF778FB1B2203213620FEF773FB1C22E5
:103B200003214820FEF76EFB1D2203215A20FEF7D9
:103B300069FB00231A461946B06A02F097FB284633
:103B400000F0D6F934A000F0FDF9284600F0D0F9D5
:103B5000012540F6AC50A4F5FA74844239D8C5B3B7
:103B6000DAF8001041F00101CAF800103946B06AD5
:103B700002F076FDFEF74EFA002203210220FEF746
:103B800041FB012203211420FEF73CFB022203210A
:103B90002620FEF737FB032211463820FEF732FBC2
:103BA000042203214A20FEF72DFB052203215C207D
:103BB000FEF728FB062203216E20FEF723FB0023DD
:103BC0001A461946B06A02F051FB706802F054F8C8
:103BD00000254FF47A7000F08BF9E2E640000020F7
:103BE000B0800008CA7D00085BB3ACC9F9B2A8C4B4
:103BF000A3BFE95D20C8CBC1B3CAB6B1F0B3C9B9A0
:103C0000A6C1CBA3ACC7EBC0EBBFAAC3C5C7B02E40
:103C10002E2E0D0A000000005BB3ACC9F9B2A8C497
:103C2000A3BFE95D20D4D9B4CEB4A5B7A2C8CBC197
:103C3000B3CAB6B1F02E2E2E0D0A00008AB0202194
:103C40006846FCF7F5FD0026604D614F08964FF081
:103C5000FF3805F11C04099642466946E86B02F0FC
:103C600063FC684600F06EF95AA16846FCF740FD17
:103C700020B359A16846FCF735FD57A10020FCF799
:103C800031FDFCF721FDC0B220700C2802D340208A
:103C9000E07000E0E67050A10020FCF723FDFCF787
:103CA00013FD60704CA10020FCF71CFDFCF70CFD1F
:103CB0004649A0701C310020FEF756FD47A168461A
:103CC000FCF716FD20B14FF48061286B02F001F97A
:103CD00045A16846FCF70CFDC0B13C4900201C31F1
:103CE000FEF786FC20786178000440EA0122A07883
:103CF0003FA102436846FCF781FB684600F0B8F834
:103D0000A378627821783BA0FCF76CFB3EA1684663
:103D1000FCF7EEFCB8B12D4900202031FEF726FC5F
:103D20002A4820300178C27841EA423241788078CE
:103D3000490241EA001002432DA16846FCF75EFBF0
:103D4000684600F095F832A16846FCF7D1FC20B136
:103D5000C7F8A46230A000F08BF830A16846FCF7E9
:103D6000C7FC28B10120C7F8A4022BA000F080F8FE
:103D70002CA16846FCF7BCFC78B108A800F018F943
:103D80009DF822201AA16846FCF738FB684600F02F
:103D90006FF8694625A0FCF725FB26A16846FCF7CD
:103DA000A7FC00283FF458AF08A800F001F99DF8DF
:103DB00020200FA16846FCF721FB684600F058F868
:103DC00069461AA0FCF70EFB46E700000000002041
:103DD00000804242545300002D0000004F50454ED9
:103DE000444F4F520000000054494D450000000070
:103DF00025642300253032643A253032643A253078
:103E000032640D0A000000004441544500000000E7
:103E10004C4544204F4E0000312300004C454420C7
:103E20004F46460054454D500000000025730D0AD2
:103E30000000000048554D490000000010B501F099
:103E400069FB01210820FEF77FFA07484FF4804103
:103E500001600021017103224271C1710146BDE878
:103E600010400248FEF732B844000020000C024027
:103E70000146014801F040BC00100140034610B566
:103E80000020024603E09C5C6040521CD2B28A4291
:103E9000F9D310BD10B501212020FEF755FA0948CD
:103EA0004FF48071002401600121017103214171EF
:103EB0008471C47101460448FEF708F80348C0F84D
:103EC000A04210BD44000020001402400080424285
:103ED00002490020C1F8A002704700000080424261
:103EE00002490120C1F8A002704700000080424250
:103EF00001F050BD2DE9F0414FF0E0280024D8F842
:103F000014700E4A0E4BD8F818501268B2FBF3F634
:103F1000464301F085FF41468869A842FCD002D2A1
:103F2000A5EB000202E0A7EB00022A441444054678
:103F3000B442F1D3BDE8F04102F0FABD58000020D0
:103F400040420F000FB44FF0FF3170B5084D05AC83
:103F5000686A02F085FB21460498FCF73DFA0023CD
:103F60001A461946686A02F081F970BC5DF814FBC4
:103F70000000002010B501214020FEF7E5F90948B6
:103F80004FF400710124016004710321417100218B
:103F90008171C17101460448FDF798FF0348C0F8DC
:103FA000A44210BD4400002000180240000043421B
:103FB0002DE9F05F524D80464FF400704FF0010A3A
:103FC0002860002485F804A04FF0030B85F805B0A5
:103FD000AC7157462646EC7129464A48FDF776FFF4
:103FE000DFF82491C9F8A4621220FFF781FFC9F815
:103FF000A4721E20FFF77EFF4FF4007028602E7120
:1040000085F805B0AE71EE7129463E48FDF75EFFBA
:104010004FF47A664D4609E00120641CFFF76AFF01
:10402000B44203D34FF0FF30BDE8F09FD5F824022F
:104030000028F1D1002408E00120641CFFF75AFF9A
:10404000642C02D36FF00100EEE7D5F824020028BB
:10405000F2D0002408E00120641CFFF74BFF642C21
:1040600002D36FF00200DFE7D5F824020028F2D176
:104070000027A94600260725002408E00120641C2B
:10408000FFF738FF642C02D36FF00300CCE7D9F8B8
:1040900024020028F2D02820FFF72CFFD9F82402B0
:1040A00090B10AFA05F03043C6B2002408E00120BE
:1040B000641CFFF71FFF642C02D36FF00400B3E70A
:1040C000D9F824020028F2D16D1ED5D508F8076072
:1040D0007F1C052FCEDB98F8001098F8010098F8A7
:1040E0000220014498F803001044084498F8041092
:1040F000C0B2814202D06FF0050095E7002093E73F
:1041000044000020001802400000434204490A888D
:104110005206FCD5024AC1B2121D11807047000040
:104120000048004030B5C3B0002440944FF4807183
:1041300068464194FCF77CFBEF208DF80001AA2033
:104140008DF8010121208DF802018DF804418DF8D0
:10415000050142F210758DF80341062140A800F0D8
:1041600069FA124C0021206802F03CF82A466946A0
:10417000206802F0D9F901464FF0FF34012803D03E
:104180000BA0FFF7DFFE0BE09DF80000EF2807D142
:104190009DF80100AA2803D19DF80500212802D02E
:1041A000204643B030BD9DF80600FAE738000020F5
:1041B0005B785175657565526563656976655D20E7
:1041C00066725F706F7765725F646F776E2065727D
:1041D000726F7220636F64652069732025640D0A15
:1041E0000000000030B5C3B04FF47A654FF4807121
:1041F0006846FCF71DFB00204090EF218DF8001170
:10420000AA218DF80111242141908DF802118DF819
:1042100004018DF803018DF80511062140A800F076
:1042200009FA154C0021206801F0DCFF2A46694696
:10423000206802F079F901464FF0FF34012803D0DD
:104240000EA0FFF77FFE11E09DF80000EF280DD1D2
:104250009DF80100AA2809D19DF8020030B99DF807
:104260000500242802D19DF8060010B1204643B075
:1042700030BD9DF80700FAE7380000205B785175E3
:10428000657565526563656976655D2066725F7008
:104290006F7765725F646F776E206572726F7220E0
:1042A000636F64652069732025640D0A00000000B7
:1042B00010B5044601F0FAF8204601F07DF94FF4FC
:1042C000FA70FFF715FEBDE8104000F04FB900008E
:1042D0002DE9FC41074600200090EF218DF80010E9
:1042E000AA218DF8011012218DF8021001908DF88D
:1042F000030002208DF8040001208DF805000A203B
:104300008DF8060042F2107505210DF10200FFF74D
:10431000B5FD8DF807000821684600F08BF9154CB3
:10432000154E0021206801F05DFF2A4612492068E1
:1043300002F0FAF80146012806D010A0FFF702FEAD
:104340004FF0FF30BDE8FC813078EF28E9D170787C
:10435000AA28E6D1B0780128E3D00028E1D1B079CD
:104360000028EFD12422F11D3846FCF7F2F9002095
:10437000E8E7000038000020300900205B78517524
:10438000657565526563656976655D2066725F7007
:104390006F7765725F646F776E206572726F7220DF
:1043A000636F64652069732025640D0A00000000B6
:1043B00030B5C3B0002440944FF4807168464194F6
:1043C000FCF736FAEF208DF80001AA208DF80101E4
:1043D000ED208DF802018DF804418DF8050142F2BF
:1043E00010758DF80341062140A800F023F9144C04
:1043F0000021206801F0F6FE2A466946206802F096
:1044000093F801464FF0FF34012803D00DA0FFF7C9
:1044100099FD12E09DF80000EF280ED19DF80100F3
:10442000AA280AD19DF8020038B99DF80500ED28A8
:1044300003D19DF80600002800D0204643B030BDCF
:10444000380000205B785175657565526563656954
:1044500076655D2066725F706F7765725F646F77F7
:104460006E206572726F7220636F646520697320BD
:1044700025640D0A00000000F0B5D1B00C460746D7
:10448000402140A8FCF7D4F94FF480716846FCF74E
:10449000CFF9EF208DF80001AA208DF801011D2031
:1044A0008DF80201002623208DF804018DF80541C6
:1044B00042F210758DF8036140AC3FB13846FCF70D
:1044C00029F902463946A01DFCF743F98DF826610B
:1044D0000A208DF827012621A01CFFF7CFFC8DF8BC
:1044E0002801292140A800F0A5F8124C00212068DD
:1044F00001F078FE2A466946206802F015F8014668
:10450000012806D00CA0FFF71DFD4FF0FF3051B081
:10451000F0BD9DF80000EF28E8D19DF80100AA2821
:10452000E4D19DF802000128E0D00028DED19DF8FA
:104530000600ECE7380000205B7851756575655220
:104540006563656976655D2066725F706F77657219
:104550005F646F776E206572726F7220636F64653F
:104560002069732025640D0A0000000030B5C3B037
:10457000002440944FF4807168464194FCF758F948
:10458000EF208DF80001AA208DF8010110208DF890
:1045900002018DF804418DF8050142F210758DF885
:1045A0000341062140A800F045F8144C0021206882
:1045B00001F018FE2A466946206801F0B5FF014661
:1045C0004FF0FF34012803D00DA0FFF7BBFC12E031
:1045D0009DF80000EF280ED19DF80100AA280AD10D
:1045E0009DF8020038B99DF80500102803D19DF808
:1045F0000600002800D0204643B030BD380000201F
:104600005B785175657565526563656976655D2092
:1046100066725F706F7765725F646F776E20657228
:10462000726F7220636F64652069732025640D0AC0
:104630000000000070B50D460A49044600200860DD
:1046400009490860094E0AE014F8011B3046FEF7DC
:1046500017FC80213046FEF77AFB0028F9D06D1E4A
:10466000F2D270BD780000206C00002000440040B1
:1046700006494FF480620A600871012088710320A6
:1046800048710020C8710248FDF720BC440000209A
:10469000000C024070B50120FFF7EAFF0B4D01202E
:1046A000C5F8BC020A4EC6F8A80205F52F7506F536
:1046B0002A76FFF71FFC002434600120FFF71AFC64
:1046C0002C60BDE870400120FFF714BC0080404220
:1046D0000080414270B50120FFF7CAFF0C4E002058
:1046E000C6F8BC020B4DC5F8A802012005F52A75D5
:1046F00006F52F76FFF7FEFB012434602046FFF716
:10470000F9FB2C60BDE870400120FFF7F3BB00000F
:10471000008040420080414270B500242046FFF7EF
:10472000A7FF0A4D0120C5F8BC02FFF7E3FB0848CC
:10473000D0F8280210B10124FFF7CCFF0020C5F803
:10474000BC020120FFF7D6FB204670BD008040422E
:10475000008041422DE9F04101210846FDF7F4FDBA
:1047600001211020FDF7F0FD01218803FDF704FE73
:10477000284C012600252660257103276771E57105
:1047800021462548FDF7A2FB1C202060257167719A
:10479000E57121462148FDF799FB00210846FEF707
:1047A000BFF802210420FEF7BBF803210420FEF726
:1047B000B7F804210846FEF7B3F819481D21016037
:1047C00005710C2141718671FDF748FB154C0620DF
:1047D000052520706570A570E6702046FDF7DEFBAC
:1047E000082020706570A570E6702046FDF7D6FBA6
:1047F000092020706570A570E6702046FDF7CEFB9D
:104800000A2020706570A570E6702046BDE8F04172
:10481000FDF7C4BB4400002000000240001002402D
:104820004C000020540000207CB501212020FDF721
:104830008BFD01208DF8040000228DF80620032155
:104840008DF80510074D4FF4C0648DF807000094F3
:1048500069462846FDF73AFB21462846FDF782FBCC
:104860007CBD0000001402401CB54FF44070FDF701
:10487000C7FB15484FF47A710068B0FBF1F0401E99
:10488000B0F1807F0AD24FF0E02148610F4AF0205A
:1048900082F8140D00208861072008614FF4165437
:1048A000204600F037FE204600F0D6FE08490520DD
:1048B000CDE9000100234FF4007206A1094801F080
:1048C000C5FF01F017FAFEE7580000200FE000E0F6
:1048D000000000206170705F7461736B5F696E69C6
:1048E00074000000153300082DE9F0474FF000096F
:1048F000224D234E4C4601274FF00008C5F8A84230
:10490000C5F8A072C6F88472C6F8BC42022005F54C
:10491000287506F52176FFF7EBFAAC602C6037605E
:10492000B7630220FFF7E4FAAF602C603460B7632E
:104930000220FFF7DDFAAF602F603460B46302201D
:10494000A5F52875A6F52176FFF7D2FA08F101083A
:10495000B8F1080FD2D309F10109B9F1200FCBD377
:10496000C5F8A842C5F8A042C6F88442C6F8BC42C1
:10497000BDE8F0470220FFF7BBBA0000000042424A
:10498000008041422DE9F0474FF00009224D234EAF
:104990004C4601274FF00008C5F8A872C5F8A07270
:1049A000C6F88442C6F8BC42022005F5287506F513
:1049B0002176FFF79DFAAF602C603460B763022068
:1049C000FFF796FAAC602C603760B7630220FFF700
:1049D0008FFAAC602F603760B4630220A5F52875AC
:1049E000A6F52176FFF784FA08F10108B8F1080F5F
:1049F000D2D309F10109B9F1200FCBD3C5F8A842F0
:104A0000C5F8A042C6F88442C6F8BC42BDE8F047EB
:104A10000220FFF76DBA00000000424200804142D0
:104A20002DE9F04101210820FDF78EFC0121102025
:104A3000FDF78AFC124C48F2020001252060257126
:104A40000026A67103276771E67121460D48FDF720
:104A50003DFA4FF4A06020602571A6716771E67180
:104A600021460948FDF732FA0848C0F8A852C0F8B4
:104A7000A0520748C0F88452C0F8BC52BDE8F0818B
:104A800044000020000C024000100240000042429E
:104A9000008041422DE9F041184E0F460446F5686A
:104AA0003068001D00F03EFE38B9306890F82C10D8
:104AB00001208840316981433161601C07D137B1E1
:104AC0003168BDE8F0410E48091D00F085BE306830
:104AD0002C44AC424460316805D2B06BBDE8F04173
:104AE000091D00F061BE706B091D00F05DFEB06A2B
:104AF000844200D2B462BDE8F08100009000002042
:104B0000600E00202DE9F041054600F071FE2D4EAB
:104B1000B068401CB06030682B4F10B1706930B382
:104B20002BE03560B068012827D1002404EB840015
:104B300007EB800000F02AFE641C202CF6D32348EB
:104B400000F024FE2148143000F020FE1F482830D9
:104B500000F01CFE1D483C3000F018FE1B48503091
:104B600000F014FE194870631430B06305E030683B
:104B7000E96AC06A884200D83560706A0121401C29
:104B800070622864E86A326981401143316100EB48
:104B9000800007EB8000291D00F01EFE00F048FE9B
:104BA000706900280CD03068E96AC06A884207D270
:104BB00007494FF080500860BFF34F8FBFF36F8FEE
:104BC000BDE8F08190000020900B0020100E002026
:104BD00004ED00E010B500F00BFE0E4C2068A0B90B
:104BE0000D4800F0D3FD0C48143000F0CFFD0A480A
:104BF000E06014302061002210210A2001F0C8FA80
:104C0000206010B105A100F091FEBDE8104000F059
:104C10000FBE0000CC000020740E0020546D7251B5
:104C20000000000030B4026C0B46002A0BD0C168B3
:104C30001144C1604468A14201D30168C16030BC25
:104C40001846FBF786BD30BC70472DE9F041856BF7
:104C5000174604460026026C82B1C7B1E068FBF734
:104C600078FDE168206C091AE1602268914202D265
:104C70006168081AE060022F16D017E02068A8B912
:104C8000606801F083FE0646002060600EE0A068C8
:104C9000FBF75FFD216CA0680844A0606168884252
:104CA00004D32068A06001E005B16D1E6D1CA563F2
:104CB0003046BDE8F08110B50446006B00F0CCFD35
:104CC0002046BDE8104000F0C7BD000010484FF47A
:104CD0009631420706D0C01D0D4920F00700411A49
:104CE000C1F596310B4A00230144C2E9000308399B
:104CF000103A21F0070111604B600B600B1AC0E9FC
:104D0000001393604FF000405360D0607047000084
:104D10009C0E0020F0000020144E154DA6F52F77B4
:104D20004FF08058DFF84C9011E000F061FDF06822
:104D3000C468201D00F0F6FCA868401EA8606868E2
:104D4000401E686000F074FD2046FFF7B4FF6868FD
:104D50000028EAD13868012805D9C9F80080BFF3D6
:104D60004F8FBFF36F8F00F0FDFCF0E74C0E00207B
:104D70009000002004ED00E02DE9F0470E46DDE94B
:104D800009841746824691009946089DA522206B0A
:104D9000FBF724FD6FF00301206B01EB8701084452
:104DA00020F00707780707D0502080F31188BFF361
:104DB0004F8FBFF36F8FFEE72218315C82F83410FB
:104DC000315C11B1401C0A28F6D3002684F83D60FE
:104DD000202D00D31F25E562C4E91256201D00F0E6
:104DE000E0FC04F1180000F0DCFC2461C5F12000B7
:104DF0006462A061266584F854604A46514638468C
:104E000000F06AFA2060B8F1000F01D0C8F8004045
:104E1000BDE8F08730B5114900E011460A688242CA
:104E2000FBD34B685C18844203D140681844486047
:104E3000084643681C18944209D1084C103C246869
:104E4000A24209D052681A4442600A68126802609D
:104E5000814200D0086030BD0460F9E7F000002016
:104E600070B5002441600B4D0061914206D8D11A03
:104E70008269914206D2011D286907E09A4203D255
:104E8000994201D3012403E0011DE86800F08CFC85
:104E9000204670BDCC00002010B5044600F0A8FCF0
:104EA000A06B20B1002400F0C3FC204610BD0124FB
:104EB000F9E7000030B587B02E4D52E00198002888
:104EC00006DADDE90301029A90470198002848DBE1
:104ED000039C606910B1201D00F024FC05A800F0BF
:104EE000B5F8024601980A283BD2DFE800F0050534
:104EF000053A263705053A260298A169034601447A
:104F00002046FFF7ADFF00B3616A20468847E0699D
:104F1000012826D1002000900298A16900234218A0
:104F20001946204601F08CFE78B9502080F3118894
:104F3000BFF34F8FBFF36F8FFEE70298A06128B1D8
:104F4000811813462046FFF78BFF0AE0502080F3BC
:104F50001188BFF34F8FBFF36F8FFEE7204600F03D
:104F60007BFC002201A9286801F0DEFA0028A5D107
:104F700007B030BDCC0000202DE9FC410E460546AF
:104F800000F04EFF01A800F061F80446019818B146
:104F900001F0CEFDBDE8FC81224FAEB1386900685A
:104FA000A8B30026291B3246386800F0D1FC01F076
:104FB000BFFD0028EED11C494FF080500860BFF3C0
:104FC0004F8FBFF36F8FE5E7A542EBD801F0B0FD3F
:104FD000F8682646C068C468201D00F0A3FBE0699D
:104FE000012810D1A0692B46411932462046FFF70F
:104FF00037FF40B100200346014600902A46204674
:1050000001F01EFE20B1616A20468847C2E707E032
:10501000502080F31188BFF34F8FBFF36F8FFEE7EF
:105020000126BFE7CC00002004ED00E00648416BFC
:10503000096829B1416BC968C968496881627047CC
:105040004FF0FF31FAE700009000002070B50546F0
:1050500001F036FC064E0446B068844203D200F0EC
:1050600009F8012000E0002028602046B46070BDEF
:10507000CC000020F8B5194E1FE0C068C468056870
:10508000201D00F04FFB616A20468847E069012837
:1050900013D1A0692844A84206D924616060211D6B
:1050A000F06800F081FB08E0002003460146009014
:1050B0002A46204601F0C4FD38B1F0680168002995
:1050C000DBD13169C6E90310F8BD502080F31188A7
:1050D000BFF34F8FBFF36F8FFEE70000CC000020BF
:1050E00008484068401C4FF0500080F3118804D0FD
:1050F000BFF34F8FBFF36F8FFEE7BFF34F8FBFF349
:105100006F8FFEE7F8000020002150B10A4B426982
:105110009A420FD1806AA3F1280290420AD040B18E
:1051200008E0502080F31188BFF34F8FBFF36F8FDB
:10513000FEE7012108467047600E0020034600206C
:1051400012B1994302D070470B42FCD00120704746
:10515000084CE068016839B1002139B10020FFF73F
:105160000BFFFFF7A7FEF4E70121F6E7C068006830
:10517000F5E70000CC0000202DE9F041044600F0E6
:1051800037FB94F9455004F1240609E0606A48B100
:10519000304601F091FC08B100F080FC6D1E6DB24C
:1051A000002DF3DC4FF0FF3684F8456000F040FB43
:1051B00000F01EFB94F9445004F1100709E0206947
:1051C00048B1384601F078FC08B100F067FC6D1E6C
:1051D0006DB2002DF3DC84F84460BDE8F04100F0CE
:1051E00027BB00002DE9F0410546002600F018FE1F
:1051F000324F386808B9FFF769FDF86805424BD1AE
:10520000C5B3083568070ED005F00700C0F10800E7
:105210000544680707D0502080F31188BFF34F8FF3
:10522000BFF36F8FFEE72DB37868854234D82349EA
:1052300010310846046801E0214604466068A8422F
:1052400002D220680028F7D13868844224D00E6842
:105250002068086060680836411B10290FD9601962
:10526000420708D0502080F31188BFF34F8FBFF35F
:105270006F8FFEE710E041606560FFF7CBFD61686E
:105280007868401A7860BA68904200D2B860F868CE
:1052900001430020C4E9000101F04AFC0EB900F00E
:1052A00062FA700707D0502080F31188BFF34F8F48
:1052B000BFF36F8FFEE73046BDE8F081E0000020CD
:1052C0000449086818B10868C26C521CC2640868B6
:1052D000704700009000002010B5031F4FF080744D
:1052E0001C601B1F21F001011960191F044B0B608A
:1052F00014390A60091F6FF0020244380A6010BDB9
:10530000E150000870B501210807FDF729F80120D8
:10531000FDF714F80120FDF79DF86120FDF780F8F6
:105320000028FAD04FF40070FDF7A0F80120FDF737
:1053300097F8FDF78FFA27487F2100244160F92173
:1053400004608160FDF79CF9234818210A25C1708B
:1053500045701D2181700221017001460020FDF77A
:10536000B7F91E483621C470057041703221817032
:1053700001460020FDF7F8F90020FDF7A5FA04200A
:10538000FDF78EFA0020FDF73FFA0120FDF79CFAA9
:1053900001218803FDF754F94FF48060FDF7A4F86C
:1053A0004FF480052846FCF749FD0D4908200D60A3
:1053B0000C71487101248C710846FCF74FFD0948B7
:1053C00003210170052141708170C470BDE87040F7
:1053D000FCF7E4BD18010020200000201C00002084
:1053E0004C000020540000202DE9F041164D00240F
:1053F0000120C5F8A0021420FEF77CFD0020C5F8AE
:10540000A002471E114E05E00120641CFEF772FD4C
:10541000B4420CDAD5F824020028F5D000240C4E52
:1054200008E00920FEF766FD641CB44202DB384642
:10543000BDE8F081D5F824020028F2D104EBD47045
:10544000401000EB4000F3E70080404240420F0074
:10545000A08601007CB501210220FCF775FF4FF406
:105460008070009001208DF8040000248DF8064023
:1054700003250C4E8DF805508DF8074069463046DF
:10548000FCF724FD70158DF8044000908DF8055050
:105490008DF8074069463046FCF718FD0248C0F811
:1054A000A0427CBD000402400080404210B50121B2
:1054B0000220FCF755FF14486321144C416042F26E
:1054C000CF01018000210181418001462046FDF786
:1054D00041FB012211462046FDF731FB0C491D20FE
:1054E00001220870052048708A70CA700846FCF7CF
:1054F00055FD01212046FDF709FB2046BDE810407F
:105500000021FDF706BB000024010020000400403C
:10551000540000202DE9F041064601210846FCF721
:1055200013FF01211020FCF727FF1E4F072209213E
:105530003846FCF707FD07220A213846FCF702FD32
:1055400019484FF4C06100240160022101714171CA
:1055500084710125C57101463846FCF7B7FC134933
:105560000C200E608C80CC800C818C81104C48818A
:105570002046FDF72BFC01212046FDF7DEFB012232
:1055800040F225512046FDF708FC0A48252101700C
:105590000521417006218170C570BDE8F041FCF71E
:1055A000FDBC000000000240440000200801002073
:1055B00000100140540000202DE9F0410646012171
:1055C0000846FCF7C1FE01214804FCF7C9FE1D484E
:1055D0000C250221056001710321417100248471B1
:1055E000194FC47101463846FCF770FC07220221AE
:1055F0003846FCF7A7FC072203213846FCF7A2FC3B
:1056000012490E608C80CC800C818C814D81104DB4
:105610002846FDF7DBFB012240F225512846FDF725
:10562000BCFB0C4926200870052048708C700120B6
:10563000C8700846FCF7B2FC2846BDE8F0410121DD
:10564000FDF77BBB44000020000002400801002061
:10565000004400405400002070B50546012102209E
:10566000FCF772FE01218804FCF77AFE1D494FF415
:10567000406000240860022008718C711A4ECC71C1
:105680004C713046FCF722FC07220A213046FCF719
:1056900059FC07220B213046FCF754FC13490C201F
:1056A0000D608C80CC800C818C81114D4881284606
:1056B000FDF78CFB012240F225512846FDF76DFBDA
:1056C0000C4927200870062048708C700120C87093
:1056D0000846FCF763FC2846BDE870400121FDF751
:1056E0002CBB000044000020000402400801002000
:1056F000004800405400002070B50C4605460DE0FF
:105700002846FDF7BDFB641C80212846FDF71FFBE2
:105710000028F9D080212846FDF706FB21780029D2
:10572000EED170BDD0E9013201699A60D0E9012360
:105730005A604A68824201D182684A60002202614E
:105740000868401E0860086870470000044908683F
:105750000A688069D26A0968C2F120028A617047CA
:10576000900000207047502080F31188BFF34F8FC6
:10577000BFF36F8FFEE7502080F31188BFF34F8F88
:10578000BFF36F8FFEE7704700F0A3BB00F1080185
:105790004FF0FF32C0E90112C160016100210160D8
:1057A000704700210161704730B50C68621C02D05F
:1057B00000F1080202E0026904E01A4653681D681D
:1057C000A542FAD953684B6099608A6051600861BC
:1057D0000168491C016030BD42684A6093688B6073
:1057E00093685960916008610168491C01607047C5
:1057F000502080F31188BFF34F8FBFF36F8F0A499A
:105800004868401C486001280CD10848006810F026
:10581000FF0F07D0502080F31188BFF34F8FBFF3E5
:105820006F8FFEE770470000F800002004ED00E0F5
:105830000849486828B1401E486001D180F31188AA
:105840007047502080F31188BFF34F8FBFF36F8FE5
:10585000FEE70000F800002070B5002827D0144DA6
:10586000A0F108046068E968084207D1502080F37D
:105870001188BFF34F8FBFF36F8FFEE722683AB1F5
:10588000502080F31188BFF34F8FBFF36F8FFEE777
:105890008843606000F0C4FA606869680844686022
:1058A0002046FFF7B7FABDE8704001F041B970BD7E
:1058B000E00000204FF0E0200021016181610549F6
:1058C0004FF47A720968B1FBF2F1491E4161072178
:1058D000016170475800002010B5FAF757FD1149D3
:1058E00010280ED300F1E02090F8F0030A789042DF
:1058F00007D2502080F31188BFF34F8FBFF36F8F13
:10590000FEE709480068896800F4E060884207D92A
:10591000502080F31188BFF34F8FBFF36F8FFEE7E6
:1059200010BD0000F80000200CED00E010B5074BA2
:10593000002253F832401CB1521C082AF9D310BD82
:1059400043F8321003EBC201486010BD500B002039
:1059500070B515460E460446FFF74AFF94F9441009
:105960000020491C01D184F8440094F94510491CD9
:1059700001D184F84500FFF75BFFA06B28B92A46E8
:10598000314604F1240000F0A7F82046BDE870403D
:10599000FFF7F2BB10B5020014D00F48006B38B10E
:1059A000502080F31188BFF34F8FBFF36F8FFEE756
:1059B00000F036FA00211046FFF76CF801F0B8F855
:1059C000002807D105494FF080500860BFF34F8F82
:1059D000BFF36F8F10BD00009000002004ED00E0C9
:1059E00070B50446FFF704FF244D04B92C68201D50
:1059F000FFF798FE58B9E06A214A00EB800152F89F
:105A0000211021B901218140286988432861A06AB9
:105A100018B104F11800FFF785FE686A401C68623F
:105A20002868844207D1211D1648FFF7D5FE686813
:105A3000401C686007E0A868401EA8602046FFF789
:105A40003AF9FFF7F3FAFFF7F3FE6869002814D07C
:105A50002868844211D1286B38B1502080F3118816
:105A6000BFF34F8FBFF36F8FFEE707494FF08050B2
:105A70000860BFF34F8FBFF36F8F70BD90000020A1
:105A8000900B00204C0E002004ED00E002490A6A51
:105A90000260C96841607047900000200149012000
:105AA000C86170479000002010B50C4650B10949FC
:105AB00009681831FFF778FE2046BDE81040012143
:105AC000FEF7E8BF502080F31188BFF34F8FBFF37C
:105AD0006F8FFEE79000002070B514460D4668B148
